:020000003A289C
:100008007E14803120007F08F100911E26282100EF
:10001800911E262823009D1C1A281D121908F0007D
:1000280070082000AB0023001D1626281908F000D0
:1000380070082000AB000D302B06031D25287B1609
:1000480026287B172000111F35282100111F35286D
:100058002000111321001C08F00070082000AA00DD
:10006800FB1771082000FF007E1009003B28FB01E8
:100078002030840000308500153048257E1020008F
:1000880045282000B801C124DE2436240325153074
:100098002000B7004B30B600BE30890B5128B60B94
:1000A8005128B70B512800006330F3008430F40066
:1000B8000524FE30F3008230F40005247930F30083
:1000C8008430F4000524B230F3008430F4000524B1
:1000D800FD308400823085000008D02415302000CF
:1000E800B7004B30B600BE30890B7828B60B78289D
:1000F800B70B782800002E303925FD308400823077
:1001080085000008D02415302000B7004B30B60019
:10011800BE30890B8D28B60B8D28B70B8D280000B3
:100128002E303925FD308400823085000008D02427
:1001380015302000B7004B30B600BE30890BA2281E
:10014800B60BA228B70BA22800002E303925FD30A7
:100158008400823085000008D02415302000B700C4
:100168004B30B600BE30890BB728B60BB728B70B93
:10017800B7280000EC30F3008430F4000524FD308B
:100188008400823085000008D02415302000B70094
:100198004B30B600BE30890BCF28B60BCF28B70B33
:1001A800CF2800002E303925FD30840082308500AC
:1001B8000008D02415302000B7004B30B600BE3000
:1001C800890BE428B60BE428B70BE42800002E308E
:1001D8003925FD308400823085000008D024153090
:1001E8002000B7004B30B600BE30890BF928B60B9B
:1001F800F928B70BF92800002E303925FD30840086
:10020800823085000008D02415302000B7004B301C
:10021800B600BE30890B0E29B60B0E29B70B0E2976
:100228000000E630F3008330F4000524FD3084003C
:10023800823085000008D02415302000B7004B30EC
:10024800B600BE30890B2629B60B2629B70B2629FE
:1002580000002E303925FD308400823085000008EA
:10026800D02415302000B7004B30B600BE30890BC3
:100278003B29B60B3B29B70B3B2900002E3039250B
:10028800FD308400823085000008D024153020001D
:10029800B7004B30B600BE30890B5029B60B502939
:1002A800B70B50290000FD3084008230850000081B
:1002B800D0248D30F3008430F400052423001D166B
:1002C8008B170B17210091167B137B1F7D297B133E
:1002D80008302000380603197D292B08B600380895
:1002E8002C3E86008701360881000130B6003608AA
:1002F800B807FB1F222AFB1320002A08982208307F
:1003080020002906031D222A2100111391127B1DAA
:10031800C8291630F2008530F3004323003A031948
:10032800A9297B1101302000B600533084008530A4
:1003380085000008890AA129B635890BA029360845
:10034800B700370822008C04162A0A302000B600AD
:100358003608B90039080319162AFD30840082309E
:1003680085000008C02302302000B7000430B60022
:10037800BA30890BBD29B60BBD29B70BBD290000C2
:1003880001302000B902AE291F30F2008530F30099
:100398004323003A0319D5291E30F3008430F400B2
:1003A80005240D30F2008530F3004323003A031989
:1003B800F2297B1501302000B600533084008530C7
:1003C80085000008890AE929B635890BE829360825
:1003D800FF3AB700370822008C05162A643020003F
:1003E800B6003608B90039080319162AFD3084000A
:1003F800823085000008C02302302000B700043096
:10040800B600BA30890B062AB60B062AB70B062A9D
:10041800000001302000B902F7292908203E860093
:100428008701810101302000A902031D112A9112C0
:100438002100911620001113210011177B1E692934
:1004480033227B1220003808031969290130200063
:10045800B80238082C3E860087018101262A4E30D2
:10046800F2008530F3002C30992372087304031DC1
:10047800522A4D30F3008430F40005244130F30053
:100488008530F4000524F930F3008430F4000524A5
:100498007130F3008330F4000524FB153130F2008D
:1004A8008530F3002C30992372087304031D772AD2
:1004B8000A30FA007A082000B50035080319762AB0
:1004C80053308400853085000008C023FD30840047
:1004D800823085000008C02301302000B5023508AD
:1004E800031D642AFB152A30F2008530F3002C30F6
:1004F800992372087304031D832A7B11FB15283086
:10050800F2008530F3002C30992372087304031D20
:100518008F2A7B15FB15FB19962AA030F30084302F
:10052800F4000524FB110800F60040307602031899
:10053800A12A3130F5007508F600953076020318C7
:10054800AD2A40307602031CAD2A3230F50075081A
:10055800F600B43076020318B92A95307602031CE7
:10056800B92A3330F5007508F600E530760203182D
:10057800C52AB4307602031CC52A3430F500750844
:10058800F600E53076020318F601FB1CDC2A200091
:100598002908203E8600870101087606031DDC2A0B
:1005A800FB107B1453308400853085000008D0246C
:1005B8007B18EB2A76080319EB2A7608F500200049
:1005C8002908203E8600870175088100FB147B1CE2
:1005D80008007608031D08007B100130F500750837
:1005E8002000A90753308400853085000008D024F6
:1005F800080004344234753469346C34643420346B
:100608004634653461347434753472346534733403
:100618003A3420345034723465342D3473346534AC
:100628007434203470346134733473342C3420348B
:1006380063346F34643465342034703472346F3406
:1006480074346534633474342C342034643465343D
:1006580062347534673420346F34753474347034CC
:1006680075347434203464346934733461346234D6
:100678006C34653464342E340D340A340034F70194
:100688000830770603196F2B7308F5007208F40019
:10069800F20A0319F30A7408840075088500000833
:1006A800F6007708203E86008701010876060319C0
:1006B8005F2B003008000630F4003030890B622BC5
:1006C800F40B622B00320130F4007408F70708308D
:1006D8007706031D482B013008004C346934733405
:1006E800743469346E34673420346F34663420349B
:1006F80064346534623475346734203463346F3459
:100708006D346D3461346E34643473342034693438
:1007180073342034643469347334613462346C342F
:10072800653464340D340A340034F600A32B0130E8
:10073800F4007408F6070130F2070030F33D76083C
:100748008600870172088400730885000008FF3A54
:10075800013E0107F4007408F5007508031DBA2B63
:100768007608860087010108031D9B2B7508F20097
:10077800F301F21BF3030800F4000130F200740ADD
:10078800C62BF235890BC52B7208F30073082200BB
:100798008C060230F3000430F200BA30890BD22BF9
:1007A800F20BD22BF30BD22B00320130F200740A79
:1007B800DE2BF235890BDD2B7208F300730822005B
:1007C8008C060800533465347434743469346E34D8
:1007D800673420347534703420347334653472349B
:1007E800693461346C3420346C3469346E34653463
:1007F8002034623475346634663465347234733444
:1008080000347530F5007508F8007408F6007308B0
:10081800F500F30A0319F40A7508840076088500C0
:100828000008F7007708F900790803190800790823
:100838003925092C6C346F346C342C3420346E34E4
:100848006934633465342034743472347934203430
:10085800743468346F3475346734683421340D3433
:100868000A34003421001D08833908389D00FC3003
:100878009E051E088F3960389E009E131D142000A7
:100888001113210011171F080F3930389F00FB136F
:10089800080041347634613469346C34613462342C
:1008A8006C346534203463346F346D346D346134A2
:1008B8006E34643473343A340D340A3400345334A7
:1008C80065346334753472344C346F3463346B3448
:1008D80020346D3465346334683461346E3469347B
:1008E80073346D340D340A3400345234653476343C
:1008F8002E34203431342E34343433342E343234DC
:100908002E343334343431342E3434340D340A3400
:1009180000340D340A345334793473347434653400
:100928006D342034733474346134723474346534FF
:1009380064340D340A34003455346E346B346E34F8
:100948006F3477346E34203463346F346D346D34DF
:1009580061346E3464340D340A34003449346E34EE
:1009680069347434693461346C3469347A34693480
:100978006E3467340D340A3400347A30210099001B
:10098800043023008C0021000C1520000C168C1656
:1009980021000C128C120800F4000130F200740AD5
:1009A800D62CF235890BD52C7208F3007308220077
:1009B8008C06080021008C140C10013023009C00C8
:1009C800A0309B009F159E161E121E159D1708002D
:1009D8005334743461347234743469346E34673423
:1009E800203441344434433400346C346534643442
:1009F80074346534733474340D340A34003420008C
:100A08009501210095111508F839063895009512B9
:100A180008003334333431343234343431343234FA
:100A280031340034343431343234343431343334BE
:100A380034343234003431343434333432343334AB
:100A4800343431343434003475346E346C346F34A7
:100A580063346B346934743400346C34653464340E
:100A680074346534733474340034F2002000111E79
:100A78003A2D720823009A000800683465346C34F3
:100A880070340D340A340034640080010131890B5C
:100A9800492D0034683465346C34703400340534BE
:020000040001F9
:04000E00E4FFFFDF2D
:00000001FF
