:020000003A289C
:100008007E14803120007F08F100911E26282100EF
:10001800911E262823009D1C1A281D121908F0007D
:1000280070082000AB0023001D1626281908F000D0
:1000380070082000AB000D302B06031D25287B1609
:1000480026287B172000111F35282100111F35286D
:100058002000111321001C08F00070082000AA00DD
:10006800FB1771082000FF007E1009003B28FB01E8
:10007800203084000030850015306C257E1020006B
:1000880045282000B901E52402255A2427251530E2
:100098002000B8004B30B700BE30890B5128B70B91
:1000A8005128B80B512800008730F3008430F40041
:1000B80029242230F3008330F40029249D30F300F2
:1000C8008430F4002924D630F3008430F400292445
:1000D80021308400833085000008F4241530200086
:1000E800B8004B30B700BE30890B7828B70B78289A
:1000F800B80B782800002E305D252130840083302D
:1001080085000008F42415302000B8004B30B700F3
:10011800BE30890B8D28B70B8D28B80B8D280000B1
:100128002E305D2521308400833085000008F424BA
:1001380015302000B8004B30B700BE30890BA2281C
:10014800B70BA228B80BA22800002E305D2521305D
:100158008400833085000008F42415302000B8009E
:100168004B30B700BE30890BB728B70BB728B80B90
:10017800B72800001030F3008530F400292421301E
:100188008400833085000008F42415302000B8006E
:100198004B30B700BE30890BCF28B70BCF28B80B30
:1001A800CF2800002E305D25213084008330850063
:1001B8000008F42415302000B8004B30B700BE30DA
:1001C800890BE428B70BE428B80BE42800002E308C
:1001D8005D2521308400833085000008F424153023
:1001E8002000B8004B30B700BE30890BF928B70B98
:1001F800F928B80BF92800002E305D25213084003D
:10020800833085000008F42415302000B8004B30F6
:10021800B700BE30890B0E29B70B0E29B80B0E2973
:1002280000000A30F3008430F400292421308400CF
:10023800833085000008F42415302000B8004B30C6
:10024800B700BE30890B2629B70B2629B80B2629FB
:1002580000002E305D2521308400833085000008A1
:10026800F42415302000B8004B30B700BE30890B9D
:100278003B29B70B3B29B80B3B2900002E305D25E5
:1002880021308400833085000008F42415302000D4
:10029800B8004B30B700BE30890B5029B70B502936
:1002A800B80B5029000021308400833085000008F5
:1002B800F424B130F3008430F400292423001D16FF
:1002C8008B170B17210091167B137B1F7D297B133E
:1002D80008302000390603197D292B08B700390892
:1002E8002C3E86008701370881000130B7003708A7
:1002F800B907FB1F222AFB1320002A08BC2208305A
:1003080020002906031D222A2100111391127B1DAA
:10031800C8293A30F2008530F3006723003A031900
:10032800A9297B1101302000B7007730840085307F
:1003380085000008890AA129B735890BA029370843
:10034800B800380822008C04162A0A302000B700AA
:100358003708BA003A080319162A21308400833076
:1003680085000008E42302302000B8000430B700FC
:10037800BA30890BBD29B70BBD29B80BBD290000C0
:1003880001302000BA02AE294330F2008530F30074
:100398006723003A0319D5294230F3008430F4006A
:1003A80029243130F2008530F3006723003A03191D
:1003B800F2297B1501302000B700773084008530A2
:1003C80085000008890AE929B735890BE829370823
:1003D800FF3AB800380822008C05162A643020003D
:1003E800B7003708BA003A080319162A21308400E2
:1003F800833085000008E42302302000B800043070
:10040800B700BA30890B062AB70B062AB80B062A9A
:10041800000001302000BA02F7292908203E860092
:100428008701810101302000A902031D112A9112C0
:100438002100911620001113210011177B1E692934
:1004480033227B1220003908031969290130200062
:10045800B90239082C3E860087018101262A7230AC
:10046800F2008530F3002C30BD2372087304031D9D
:10047800522A7130F3008430F40029246530F300E7
:100488008530F40029241D30F3008530F400292438
:100498009530F3008330F4002924FB155530F20021
:1004A8008530F3002C30BD2372087304031D762AAF
:1004B8000A302000B5003508FA007A080319752AB1
:1004C80077308400853085000008E42321308400DB
:1004D800833085000008E4230130FA027A08031DFE
:1004E800642AFB154E30F2008530F3002C30BD2312
:1004F80072087304031D942A01302000B500773078
:100508008400853085000008890A8B2AB535890B57
:100518008A2A3508B600360822008C047B11FB15A0
:100528004C30F2008530F3002C30BD237208730480
:10053800031DB32A01302000B500773084008530D0
:1005480085000008890AA92AB535890BA82A350823
:10055800FF3AB600360822008C057B15FB15FB19FF
:10056800BA2AC430F3008430F4002924FB110800AF
:10057800F600403076020318C52A3130F5007508B8
:10058800F600953076020318D12A40307602031C13
:10059800D12A3230F5007508F600B4307602031817
:1005A800DD2A95307602031CDD2A3330F500750804
:1005B800F600E53076020318E92AB4307602031C07
:1005C800E92A3430F5007508F600E530760203189C
:1005D800F601FB1C002B20002908203E860087011D
:1005E80001087606031D002BFB107B14773084006E
:1005F800853085000008F4247B180F2B7608031932
:100608000F2B7608F50020002908203E8600870178
:1006180075088100FB147B1C08007608031D080080
:100628007B100130F50075082000A9077730840099
:10063800853085000008F4240800043442347534F9
:1006480069346C3464342034463465346134743429
:1006580075347234653473343A3420345034723417
:1006680065342D3473346534743420347034613413
:10067800733473342C34203463346F346434653405
:100688002034703472346F347434653463347434A1
:100698002C3420346434653462347534673420343F
:1006A8006F3475347434703475347434203464346D
:1006B80069347334613462346C34653464342E3490
:1006C8000D340A340034F701083077060319932BE8
:1006D8007308F5007208F400F20A0319F30A7408A3
:1006E8008400750885000008F6007708203E86001B
:1006F8008701010876060319832B003008000630AD
:10070800F4003030890B862BF40B862B0032013035
:10071800F4007408F70708307706031D6C2B0130C6
:1007280008004C3469347334743469346E34673473
:1007380020346F346634203464346534623475345C
:100748006734203463346F346D346D3461346E34FF
:100758006434733420346934733420346434693431
:100768007334613462346C34653464340D340A345F
:100778000034F600C72B0130F4007408F607013086
:10078800F2070030F33D760886008701720884007E
:10079800730885000008FF3A013E0107F400740859
:1007A800F5007508031DDE2B760886008701010811
:1007B800031DBF2B7508F200F301F21BF3030800B9
:1007C800F4000130F200740AEA2BF235890BE92BA8
:1007D8007208F300730822008C060230F30004301C
:1007E800F200BA30890BF62BF20BF62BF30BF62B33
:1007F80000320130F200740A022CF235890B012C08
:100808007208F300730822008C060800533465341C
:100818007434743469346E34673420347534703405
:100828002034733465347234693461346C34203460
:100838006C3469346E34653420346234753466340B
:10084800663465347234733400347530F5007508D5
:10085800F8007408F6007308F500F30A0319F40A9F
:1008680075088400760885000008F7007708F90005
:1008780079080319080079085D252D2C6C346F342C
:100888006C342C3420346E34693463346534203449
:100898007434723479342034743468346F34753471
:1008A8006734683421340D340A34003421001D08BB
:1008B800833908389D00FC309E051E088F39603842
:1008C8009E009E131D1420001113210011171F08EC
:1008D8000F3930389F00FB130800413476346134F7
:1008E80069346C34613462346C3465342034633474
:1008F8006F346D346D3461346E34643473343A3427
:100908000D340A3400345334653463347534723426
:100918004C346F3463346B3420346D346534633451
:10092800683461346E34693473346D340D340A3488
:1009380000345234653476342E34203431342E3435
:10094800343433342E3432342E3433343434313472
:100958002E3434340D340A3400340D340A3453340C
:1009680079347334743465346D34203473347434A6
:10097800613472347434653464340D340A340034A8
:1009880055346E346B346E346F3477346E342034AF
:1009980063346F346D346D3461346E3464340D34C3
:1009A8000A34003449346E34693474346934613437
:1009B8006C3469347A3469346E3467340D340A34EB
:1009C80000347A3021009900043023008C00210083
:1009D8000C1520000C168C1621000C128C12080025
:1009E800F4000130F200740AFA2CF235890BF92C64
:1009F8007208F300730822008C06080021008C148A
:100A08000C10013023009C00A0309B009F159E16FF
:100A18001E121E159D170800533474346134723445
:100A2800743469346E346734203441344434433484
:100A380000346C3465346434743465347334743419
:100A48000D340A3400342000950121009511150851
:100A5800F8390638950095120800333433343134A8
:100A6800323434343134323431340034343431347F
:100A7800323434343134333434343234003431346D
:100A88003434333432343334343431343434003459
:100A980075346E346C346F3463346B346934743445
:100AA80000346C34653464347434653473347434A9
:100AB8000034F2002000111E5E2D720823009A00F7
:100AC8000800683465346C3470340D340A340034EA
:100AD800640080010131890B6D2D00346834653460
:080AE8006C3470340034053455
:020000040001F9
:04000E00E4FFFFDF2D
:00000001FF
